:100000000C9478020C94BF020C94BF020C94BF02B3
:100010000C94BF020C94BF020C94BF020C94BF025C
:100020000C94BF020C94BF020C94501D0C94221E21
:100030000C94AE150C94BF020C94BF020C94BF023A
:100040000C94BF020C94BF020C94BF020C94BF022C
:100050000C94BF020C94FB150C94BF020C94BF02CD
:100060000C94BF020C94BF020C94BF020C94BF020C
:100070000C94BF020C94BF020C94BF020C94BF02FC
:100080000C94BF020C94BF020C94BF020C94BF02EC
:100090000C94BF020C94BF020C94BF020C94BF02DC
:1000A0000C94BF020C94BF020C94BF02220C220CD1
:1000B000540C540CA10CBF0CD30DD30DCA0C630D02
:1000C000740D740D730E730E850E850E7C0E850EE9
:1000D000850E850E730E730E810E850E850E810EB4
:1000E0008F1EB61EAE1FB61EAE1F021F251FAE1FEF
:1000F0007C1F8B1F68747470733A2F2F716D6B2E79
:10010000666D2F0A00514D4B20697320746865207D
:1001100062657374207468696E6720657665722104
:10012000002B4314001A00360037000500E00004DD
:10013000001200080018430C0029621D451B6806C8
:100140006419412C621000150007001C0013002ADE
:10015000450A0017430E00110016002D0028420921
:10016000440B000D000F00284335001E001F002027
:1001700000210022000100260227022F0030003358
:100180000001002F02300234020100340023002459
:10019000002500260027004C002E022D00250238E5
:1001A000002E00010001000100010001000100011A
:1001B0000001003A003B003C003D003E0001003FD2
:1001C000004000410042004300010044004500237C
:1001D0000235020100010001000100010001004C94
:1001E00000A8004A004D004B004E00010001000134
:1001F00000010001000100005C010046004900010F
:10020000000100010001000100010001008B00015C
:100210000001000100010001008B0001000100014C
:10022000000100A6000100A50001008A005200B6EE
:1002300000B7000100005C8A00500051004F00012F
:100240000035001E021F02200221022202010023AB
:1002500002210231002402310201000100010001EB
:100260000001000100010033022502380035024C74
:10027000002D0233001E0238022E000100AE0001E4
:1002800000AA00A900AC00AB0001000100F400F0DE
:1002900000F400F500F9000100F200F100F30001A4
:1002A00000FA000100FB00FC000100FE000100015B
:1002B00000F600F500F40001000100B5000100F7B0
:1002C00000F80001000100010001000100FE000132
:1002D0000001000100010001000100010001000116
:1002E0000001000100010001000100010001000106
:1002F00000010001000100010001000100010001F6
:1003000000010001000100010001000100010001E5
:1003100000010001000100010000000000000000D9
:10032000002A2B2800000000000000000000000050
:100330000000000029000000002C1E34202122248F
:10034000342627252E362D3738271E1F202122231D
:100350002425263333362E37381F040506070809AF
:100360000A0B0C0D0E0F1011121314151617181975
:100370001A1B1C1D2F3130232D35040506070809D3
:100380000A0B0C0D0E0F1011121314151617181955
:100390001A1B1C1D2F3130354C00000000000000DE
:1003A000000000000000000000000000007E0F00C0
:1003B000D4FFFFFFC700000078120363006F006FD7
:1003C000006C00380033003600410000000E034F7F
:1003D0000068006100730068006900000004030900
:1003E0000409023B00020100A0FA09040000010315
:1003F00001010009211101000122400007058103CC
:1004000008000A090401000103000000092111018C
:1004100000012281000705820320000A1201100159
:1004200000000008EDFE00000100010200010501CE
:100430000902A10185020901A10005091901290587
:10044000150025019505750181029501750381014E
:100450000501093009311581257F9502750881064E
:1004600009381581257F950175088106050C0A3824
:10047000021581257F950175088106C0C005010917
:1004800080A101850319012AB700150126B700953F
:100490000175108100C0050C0901A1018504190135
:1004A0002AA002150126A002950175108100C00541
:1004B000010906A101050719E029E71500250195A5
:1004C0000875018102950175088101050719002948
:1004D000FF150026FF009506750881000508190123
:1004E0002905950575019102950175039101C000DB
:1004F00011241FBECFEFDAE0DEBFCDBF04B603FE8E
:1005000027C08091360290913702A0913802B091B5
:1005100039028730904BA740B04BD1F4109236028D
:1005200010923702109238021092390214BE84B72A
:10053000877F84BF0FB6F894A8958091600088618A
:1005400080936000109260000FBEE0E0F8E3099530
:1005500011E0A0E0B1E0E8EAF0E402C005900D92FD
:10056000A238B107D9F722E0A2E8B1E001C01D929C
:10057000A633B207E1F70E94901A0C9452200C9413
:10058000000089322DE5920721F08A329D4541F025
:100590000FC0FB018281882359F085E091E006C0FD
:1005A000FB018281882321F084EF90E00E94E10327
:1005B00081E0089581E008950C94C10208950C949F
:1005C000DE021F93CF93DF9300D000D01F92CDB7F0
:1005D000DEB749835A836B833091960189819A8172
:1005E000311114C0662359F0222349F00E943113BF
:1005F000182F682F89819A810E94D81203C00E9407
:100600000413182F69817A81812F04C00E9431134D
:1006100069817A810F900F900F900F900F90DF916A
:10062000CF911F910C944D04FC01262F40815181E4
:100630006281738184810C94E102CF93DF93EC019A
:1006400060E00E941403BE01DF91CF910C94DF02A1
:10065000FF920F931F93CF93DF93E82FF0E0E75EB5
:10066000FC4FF490C82FC695C695C695D0E0FE0104
:10067000E755FC4F0491877010E0082E02C01595D5
:1006800007950A94E2F701701127FE01E756FC4F27
:10069000C491D0E002C0D595C7958A95E2F7C170A4
:1006A000DD270115110519F081EE0E94B50A20978A
:1006B00019F086EE0E94B50A8F2D0E94C70BCD2B34
:1006C00019F086EE0E945F0B012B41F081EEDF9165
:1006D000CF911F910F91FF900C945F0BDF91CF9101
:1006E0001F910F91FF900895EF92FF920F931F9328
:1006F000CF93DF938C01F62E8AE0E82EF8018491E7
:10070000882309F457C0813009F042C0E8012196DE
:10071000FE018491813031F42196FE0184910E9482
:10072000C70B39C0823039F4E8012296FE0184916A
:100730000E94B50A30C0833039F4E8012296FE01E8
:1007400084910E945F0B27C0843029F5E80122962E
:10075000FE01249180E090E030E0205331092A30FE
:10076000310560F4E89EA001E99E500D1124C901F5
:10077000840F951F2196FE012491EECF009759F02A
:10078000EFE9FFE03197F1F700C000000197F6CFE5
:100790000E942803E8018E010F5F1F4F8F2D8823D1
:1007A00009F4ACCFEFE9FFE03197F1F700C00000AA
:1007B0008150F5CFDF91CF911F910F91FF90EF9076
:1007C000089560E00C9474030E9447160E945C1424
:1007D000811102C00E9403150C944B060C9447062D
:1007E00008950E94610E0E94F0032FEF84E39CE0C5
:1007F000215080409040E1F700C000000C94211689
:100800000F931F93CF93DF93EC0161E00E941403D9
:100810008C01BE010E94DC02882349F1BE01C8019F
:100820000E94BB07882319F1BE01C8010E940D0870
:100830008823E9F0BE01C8010E9438098823B9F075
:100840008A81882369F001158CE5180731F00F3D86
:100850001C4531F40E9403150AC00E94F10307C031
:10086000CE01DF91CF911F910F910C94DA0280E0BD
:10087000DF91CF911F910F91089508950C943D043D
:1008800081E008950C944004CF93C82F0E943E0449
:100890008C2F0E944204CF91089524E2829FC001D0
:1008A0001124FC0126E0729FE00DF11D1124E60FDA
:1008B000F11DEE0FFF1FEF5DFE4F8591949108959E
:1008C000CF93DF930E944D040E946205EC018115D5
:1008D00021E5920708F043C0811540E5940708F030
:1008E0008AC0883E910520F5803E910508F0E6C05B
:1008F000883A910570F4853A910508F074C081300A
:10090000910509F4DBC008F4D7C0049708F0D6C0FD
:10091000D3C08F3B910508F0CFC0C85AD0E0CC0FB0
:10092000DD1FCC5EDE4F0990D881C02DD464C6C0D7
:10093000C11580E2D80758F4C11521E0D20708F0AC
:10094000BDC0C03FD10508F4B7C0D065B7C0C11560
:1009500040E4D40708F4B0C0DF70D06AAFC0C1155E
:1009600085E5D807A0F4C11524E5D20708F08AC0B0
:10097000C11543E5D40708F06FC0C11582E5D8075B
:1009800008F054C0DC2FCC27C16FD06A97C0C115C6
:1009900029E5D207A0F4C11548E5D40708F077C0CF
:1009A000C11586E5D80708F087C08C2F0E94F60590
:1009B0008F71C82FD0E0DC2FCC27D0627FC0C1154B
:1009C0002AE5D20708F468C0CE01905681159042FE
:1009D00008F072C08D2F8F710E94F605DD27D0625E
:1009E0008F71D82B6BC0C55AD0E0CE5BDE4FC8816B
:1009F000D0E0D06463C074E0969587957A95E1F76E
:100A000083709C2F937021E030E002C0220F331FCF
:100A10009A95E2F73C68382BCF70C695C69580E270
:100A2000C89FE0011124C22BD32B48C0CE01837094
:100A3000992721E030E002C0220F331F8A95E2F7A8
:100A40008C2F8695869540E2849FC0011124E90190
:100A5000C82BD92BDC6832C0CE018370992721E0E6
:100A600030E002C0220F331F8A95E2F78C2F869563
:100A7000869540E2849FC0011124E901C82BD92B3F
:100A8000DA681CC0DC2FCC27C46FD06A17C0DC2FFB
:100A9000CC27C06FD06A12C08C2F8F700E94F605D1
:100AA00094E0D695C7959A95E1F7CF70D0E0DC2F0A
:100AB000CC27D069C82B02C0C0E0D0E0CE01DF91C6
:100AC000CF9108958238910569F1B0F48133910591
:100AD00009F46DC048F48932910509F463C08A3283
:100AE000910509F469C008958533910509F455C04D
:100AF00089339105B9F00895833E910569F138F481
:100B0000803E9105B1F0823E910509F10895863E3F
:100B10009105A9F1873E9105B9F1843E910509F04F
:100B200064C023C02091270220FD4FC021FD4DC08D
:100B300008958091270280FD44C08091280280FFA3
:100B400044C08091270284FD42C083EE4DC0809155
:100B5000270282FF38C0F5CF8091270282FD33C083
:100B60008091280280FD31C0ECCF8091280281FF66
:100B700032C08091270284FD2AC087EE35C0809163
:100B8000270283FF26C0F5CF8091270283FD21C075
:100B90008091280281FD1FC0ECCF8091270285FD46
:100BA0001CC01DC08091270285FD19C016C0809110
:100BB000270286FD16C017C08091270286FD13C04C
:100BC00010C089E311C082EE0FC080EE0DC080E03E
:100BD0000BC086EE09C084EE07C089E205C085E33C
:100BE00003C08AE201C081E390E00895909127025A
:100BF00092FF0DC0282F2871283019F4877F846058
:100C000006C0282F2471243011F48B7F886093FF55
:100C10000DC0282F2871283119F4877E846106C001
:100C2000282F2471243111F48B7E886120912802B1
:100C300020FF0DC0382F3871383019F4877F81605C
:100C400006C0382F3171313011F48E7F886021FF5A
:100C50000DC0282F2871283119F4877E816106C0C4
:100C6000282F2171213111F48E7E886194FD877EB9
:100C70000895E82FF0E0E35EFD4F80810895089528
:100C800080EA8A95F1F7089508950C9444060C942F
:100C900045060C9444060C944906F894E82FE29516
:100CA000EF70F0E031A1282F2F7081E090E001C0BB
:100CB000880F2A95EAF7982F9095932391A392A1F4
:100CC000892B82A378940895CF93DF93C5E4D1E074
:100CD00089910E944D0681E0CB34D807C9F7CBE457
:100CE000D1E089910E944D0681E0C135D807C9F74E
:100CF000E7E1F2E0ADE1B2E08DE192E011921D9208
:100D00008E179F07D9F786E00E941107DF91CF91D8
:100D10000C94E4038F929F92AF92BF92CF92DF9296
:100D2000EF92FF920F931F93CF93DF9305E411E0AF
:100D3000C0E0D0E0912CEE24E394F12C9DE1A92EAB
:100D400092E0B92E6801D8018C91F894E82FE295D1
:100D5000EF70F0E021A18F70A70102C0440F551F72
:100D60008A95E2F7CA01922F982B91A392A18095C0
:100D7000892382A378940E944006C7010C2E01C0EB
:100D8000880F0A94EAF7582F282F2095E7E1F2E020
:100D90006BE471E0812C4081DB013D91BD01832F2B
:100DA00082958F7090E0DC0190968C9190E03F707E
:100DB00002C0959587953A95E2F780FD03C0842F90
:100DC000852B02C0842F8223481719F08083882442
:100DD00083943196AE16BF06F1F60F5F1F4FF601F2
:100DE00080810E944D0698282196C630D10509F0D1
:100DF000A9CF292D46E06DE172E087E192E00E94E3
:100E000012070E94EE03892DDF91CF911F910F9160
:100E1000FF90EF90DF90CF90BF90AF909F908F901A
:100E200008950895FF920F931F93CF93DF938C0142
:100E3000F62ED72FC42F222349F081E0809384011E
:100E40000E94E01590938301809382018091840138
:100E50008823C1F080918201909183010E94EC155A
:100E6000069780F0EF2DFD2FD8014C2F50E0CD01DB
:100E7000801B910B841795071CF48D918193F7CFFC
:100E800010928401DF91CF911F910F91FF900895EF
:100E90000F931F93CF93DF93C42FD22FFC01828136
:100EA0008823C9F0409387010E94E0159093860142
:100EB0008093850180E28C0F883008F057C0C7709E
:100EC00081E001C0880FCA95EAF7DF91CF911F91A9
:100ED0000F910C94DA0B80918701481330C08091F8
:100EE0008501909186010E94EC15883C910538F5AA
:100EF00010E21D0FCD17B9F080E28C0F883040F45E
:100F0000C77081E001C0880FCA95EAF70E94E10B23
:100F1000183028F581E09D2F977001C0880F9A95B1
:100F2000EAF70E94DA0B802F0E94C70B1830F0F40A
:100F3000D77081E001C0880FDA95EAF70AC080E235
:100F40008C0F883098F4C77081E001C0880FCA9573
:100F5000EAF7DF91CF911F910F910C94E10B802F55
:100F6000DF91CF911F910F910C94C70BDF91CF911F
:100F70001F910F9108950F939C01CB01243F4CE5E5
:100F8000340731F188F4293DFCE53F07D9F02A3DCB
:100F90004CE5340779F1283D3C45A9F506E221EE00
:100FA00041EE68ED7CE52BC0263FFCE53F07E1F014
:100FB000A8F0273F3C4539F507E225EE46EE67EFFE
:100FC0007CE51DC007E225EE45EE69ED7CE517C026
:100FD00006E221EE40EE64EF7CE511C007E225EE6B
:100FE00044EE65EF7CE50BC006E221EE42EE66EFD3
:100FF0007CE505C008E221E045EE6AED7CE50E9453
:10100000480780E008C0FC018281882319F0109213
:10101000870101C081E00F910895CF93DF93EC0128
:10102000FB018281882309F41FC1C230FCE5DF0780
:1010300008F41BC1C6319CE5D90738F09E012B5F2F
:101040003C452930310508F010C10E946F1490937F
:10105000280280932702C031ECE5DE0709F4C3C003
:1010600008F041C0C8308CE5D80709F49AC0F0F404
:10107000C430ECE5DE0709F487C068F4C2308CE5C3
:10108000D80709F477C0C330DC4509F0E3C080918C
:101090002702826076C0C630ECE5DE0709F46EC038
:1010A00008F07BC08091270288606BC0CC308CE553
:1010B000D80709F485C068F4CA30ECE5DE0709F406
:1010C00074C008F079C00E94610E80912702806888
:1010D00058C0CE308CE5D80709F476C008F07FC040
:1010E000809127028BC0CC3FECE5DE0709F44FC0AE
:1010F00018F5C3318CE5D80709F47DC078F4C13107
:10110000ECE5DE0709F473C0C231DC4509F0A2C08A
:101110000E94610E809127028F7733C0C5318CE524
:10112000D80709F472C008F486C0CB3FDC4509F04B
:1011300091C0809128023EC0C115FDE5DF0709F48A
:101140005FC058F4CE3F9CE5D90709F444C008F4C9
:101150003FC08091280282602DC0C230FDE5DF07CC
:1011600009F475C008F45DC0C330DD4509F072C0F4
:1011700080E06EC080912702816003C080912702C9
:1011800080618093270266C08091270211C0809100
:1011900028028260809328025DC0809127028062CD
:1011A000F0CF809127028064ECCF80912702886085
:1011B0008460E7CF8160EECF809127028E7FE1CF00
:1011C000809127028D7FDDCF80912702877FD9CF45
:1011D0008091280218C0809128028D7FDBCF8091FA
:1011E00027028F7ECECF809127028F7DCACF80913C
:1011F00027028F7BC6CF80912702877F8B7FC1CF4D
:10120000809128028D7F8E7FC5CF8091270282FB3F
:10121000222720F991E0922790FB82F990FB83F935
:10122000B0CF80912802982F909591708E7F892B56
:1012300090FB81F9AFCF0E94610E8091270287FB5E
:10124000222720F991E0922790FB87F99ACF81E03D
:101250000E94051580912702909128020E94801417
:101260000E94610E80E001C081E0DF91CF9108957E
:10127000CF93DF9386319C4541F5EB010E94B21379
:10128000982F8A812091000130910101882379F003
:101290009A7A81E009F480E080938801911102C07C
:1012A00069E201C065E3C9010E944C150AC0809142
:1012B0008801811102C069E201C065E3C9010E9491
:1012C0004E150E94F31380E001C081E0DF91CF91C1
:1012D000089590938E0180938D010895E0918D0182
:1012E000F0918E01309721F00190F081E02D09946A
:1012F00080E00895E0918D01F0918E01309721F00A
:101300000280F381E02D09940895E0918D01F09120
:101310008E01309739F022E0DC012C930480F581B6
:10132000E02D0994089520918B0130918C012817AC
:10133000390771F090938C0180938B01E0918D01BE
:10134000F0918E01309721F00680F781E02D09940D
:1013500008952091890130918A012817390771F089
:1013600090938A0180938901E0918D01F0918E0123
:10137000309721F00084F185E02D0994089585B718
:10138000806885BF85B7806885BF089581E008952E
:101390000C94C60908950C94CA090C94CA090C94BB
:1013A000CD090C94CA090C94D1090C94CA090E9465
:1013B000BF090E94D5090C94D3090E94D7150E9439
:1013C00064060E945B160C94CF09AF92BF92CF9235
:1013D000DF92EF92FF920F931F93CF93DF93CDB7DE
:1013E000DEB72A970FB6F894DEBF0FBECDBF0E94BE
:1013F000CB090E94CA090E948A060E94C80981116D
:1014000011C08FEF89838A831B820E94E01581605F
:10141000782F9D838C8349815A816B818D810E94B5
:10142000810A40C080E9A82E81E0B82E00E010E0DB
:10143000C02E802F0E943906E82EF501D1905F0161
:10144000D82631F40F5F1F4F0630110589F7D9CF29
:101450008091FD0181FD0E943F0680E0FF24F3940E
:101460009D2D9F21D1F08E83CF82EF2081E009F462
:1014700080E088870E94E0158160782F9A878987AD
:101480004E815F8168858A850E94810AF801E05754
:10149000FE4F8081F826F08205C08F5FFF0C8630FA
:1014A000F9F6D0CF0E940A180E946E0990918F0120
:1014B0008917B1F00E946E0980938F012A960FB6AA
:1014C000F894DEBF0FBECDBFDF91CF911F910F917A
:1014D000FF90EF90DF90CF90BF90AF900C944404BA
:1014E0002A960FB6F894DEBF0FBECDBFDF91CF9125
:1014F0001F910F91FF90EF90DF90CF90BF90AF9032
:101500000895CF93DF93CDB7DEB72B970FB6F8943E
:10151000DEBF0FBECDBF4F83588769877A878B8721
:10152000DE01119686E0FD0111928A95E9F785E0CA
:10153000FE01379601900D928A95E1F749815A8113
:101540006B817C818D819E810E941A112B960FB632
:10155000F894DEBF0FBECDBFDF91CF910895FC019F
:10156000808191810E9473130895CF93882309F499
:10157000A4C0C82F8238C1F40E946E0981FD9DC0AD
:1015800069E380910001909101010E944C150E9435
:10159000F3132FEF81EE94E0215080409040E1F76B
:1015A00000C0000069E319C0833801F50E946E098C
:1015B00080FD83C063E580910001909101010E944C
:1015C0004C150E94F3132FEF81EE94E021508040E0
:1015D0009040E1F700C0000063E580910001909128
:1015E00001010E944E15CF910C94F3138438C1F47D
:1015F0000E946E0982FD61C067E4809100019091B4
:1016000001010E944C150E94F3132FEF81EE94E02C
:10161000215080409040E1F700C0000067E4DDCF3A
:101620008CEF8C0F813AD0F46C2F80910001909157
:1016300001010E941615882349F06C2F809100014A
:10164000909101010E944E150E94F3136C2F80911E
:101650000001909101010E944C15C5CF80E28C0FD2
:10166000883048F4C77081E001C0880FCA95EAF756
:101670000E94B513B8CFEBE5EC0FE33040F4F0E097
:10168000E158FE4F808190E0CF910C949309E8E5FA
:10169000EC0FE73150F4F0E0EE0FFF1FEF5AFE4F72
:1016A00080819181CF910C94A909C03F30F08C2F9B
:1016B0000E94FF16CF910C94EC17CF9108958823C8
:1016C00009F464C0823879F40E946E0981FF5EC01B
:1016D00069E380910001909101010E944C150E94E4
:1016E000F31369E310C08338B1F40E946E0980FFE0
:1016F0004DC063E580910001909101010E944C155D
:101700000E94F31363E580910001909101010E9412
:101710004E150C94F313843879F40E946E0982FFFD
:1017200035C067E480910001909101010E944C1541
:101730000E94F31367E4E7CF9CEF980F913A10F4FF
:10174000682FE1CF90E2980F983050F4877091E0C5
:1017500001C0990F8A95EAF7892F0E94BB13D9CF50
:101760009BE5980F933020F480E090E00C9493096F
:1017700098E5980F973120F480E090E00C94A90947
:10178000803F20F00E9467170C94EC170895CF93C8
:10179000C82F0E94B50AC93349F42FEF87EE93E0B2
:1017A000215080409040E1F700C000008C2FCF9185
:1017B0000C945F0B882321F00E94B5130C94F31353
:1017C0000895882321F00E94BB130C94F31308950D
:1017D000CF92DF92EF92FF920F931F93CF93DF93FD
:1017E0007C01D62FC72FFC01058102950F70128155
:1017F00011110E94D2130E94AB13882399F0112378
:1018000089F08C2F807F803421F080E28D0F88302A
:1018100048F082E00E943D140E94AB1391E0D82E64
:10182000D92601C0D12CCC2EC2948FE0C8228C2D99
:1018300090E08C30910508F0B6C1FC01EA5AFF4FE8
:101840000C94F61F8C2F807FCF70882311F0C295E7
:10185000C07F112399F0CC2309F491C180E28D0F50
:10186000883010F0D11104C08C2F0E94B51303C032
:101870008C2F0E94C5130E94F31381C18D2F0E94EB
:101880005F0BCC2309F48FC180E28D0F883010F0FC
:10189000D11104C08C2F0E94BB1303C08C2F0E9457
:1018A000CB130E94F3137FC18C2F807FCF708032C7
:1018B00011F0C295C07FDD2319F0D130C9F022C0EC
:1018C000112371F0002341F0013031F40E94D8134C
:1018D0008C2B0E94E01367C10E94D8138C2B1DC073
:1018E000002319F0013009F45EC10E94E91325C0FC
:1018F000112321F0063008F056C10EC0053008F063
:1019000052C11BC0112361F0002331F0F701858122
:1019100080FF35C18F7085838C2F0E94DA0B43C105
:10192000002359F0D93309F03BC1FFEF07EE13E074
:10193000F15000401040E1F731C18C2F0E94E10BC3
:1019400032C18C2F86958695837019F0813061F0B5
:101950002AC1112321F08D2F9C2F937002C080E0AB
:1019600090E00E94930927C1112321F08D2F9C2F15
:10197000937002C080E090E00E94A9091CC18D2FE5
:10198000112319F00E94FF1602C00E9467170E94DF
:10199000EC1711C18C2F837009F047C0111107C1DA
:1019A0002D2F229526952770220F220F6D2F6F70F5
:1019B000862F90E0A0E0B0E0022E04C0880F991FAF
:1019C000AA1FBB1F0A94D2F7D4FF10C04FE050E00B
:1019D00060E070E004C0440F551F661F771F2A9512
:1019E000D2F7409550956095709503C040E050E067
:1019F000BA01C695C695C3708A019B01082B192BA5
:101A00002A2B3B2BC901B801C23049F058F4C13030
:101A100019F00E94EE11CBC00E94DC11C8C00E94D8
:101A20000012C5C00E94DA11C2C0112319F08C2F18
:101A3000817001C08695882309F4B9C02D2F2295A5
:101A400026952770220F220F6D2F6F70862F90E042
:101A5000A0E0B0E0022E04C0880F991FAA1FBB1F90
:101A60000A94D2F7D4FF10C04FE050E060E070E07D
:101A700004C0440F551F661F771F2A95D2F7409563
:101A800050956095709503C040E050E0BA01C6954E
:101A9000C695C3708A019B01082B192B2A2B3B2B5F
:101AA000C901B801C23049F058F4C13019F00E94A0
:101AB000B3127DC00E94A1127AC00E94C51277C0E5
:101AC0000E94141274C0CF70112339F08C2F0E9421
:101AD0003A128D2F0E94DA0B6AC08D2F0E94E10B03
:101AE0008C2F0E945B1263C0D23F01F128F4D03FDB
:101AF00041F0D13FA1F03FC0D33FF9F0D43F39F1DD
:101B00003AC0112341F0053008F04DC08C2F8F7181
:101B10000E94801248C0063008F045C0F7CF11235C
:101B200039F08C2F8F710E943A123DC01123C9F3F6
:101B30008C2F8F710E945B1236C0112329F08C2FDD
:101B40008F710E9425122FC00E9420122CC01123D9
:101B500049F0CF718C2F0E943A1263E08C2F0E94C3
:101B6000281421C081E00E943D140230E0F082E0A0
:101B70000E943D1418C0112331F0002391F28D2FE3
:101B80000E94B50A10C0002399F2D93349F41FEF1F
:101B900027EE33E0115020403040E1F700C0000054
:101BA0008D2F0E945F0B88EF8C0D843020F40E94F3
:101BB0006E090E944404DD20C9F00E94A71380FD35
:101BC00015C0F70112820E94A1130E943A12C701A8
:101BD0000E94170E0E94A113DF91CF911F910F91C8
:101BE000FF90EF90DF90CF900C945B12DF91CF913C
:101BF0001F910F91FF90EF90DF90CF9008950F937A
:101C00001F93CF93DF93EC01688179818A810E94D1
:101C10007E138C010E94D7120E94C811B801CE0118
:101C20000E94E80BDF91CF911F910F910895CF9300
:101C3000DF93EC01988189812B813C81232B31F04A
:101C40008F3F31F481E09F3F19F403C081E001C070
:101C500080E080FD19C0CE010E94000481110CC0FB
:101C60000E94AB13882381F08A81882369F082E087
:101C7000DF91CF910C943D14CE010E94FF0DCE0157
:101C8000DF91CF910C941D03DF91CF9108950E94B5
:101C9000D2130E94D5130E94F3130E941D190E94B3
:101CA000EC1780E090E00E94930980E090E00C94B3
:101CB000A90980910001909101010E9450150C9496
:101CC000470E0E94C2130C94590EE92FE295EF7053
:101CD0004E2F50E0FA013297EE30F105B0F4EE5994
:101CE000FF4F0C94F61F803F91F018F4883E68F483
:101CF0000EC0843F51F40BC0883E48F0813F29F468
:101D000006C093FB882780F9089580E0089581E05C
:101D100008950E9473130E94650E0895CF93DF9378
:101D200000D000D01F92CDB7DEB70F900F900F906C
:101D30000F900F90DF91CF910895CF93DF9300D054
:101D400000D000D0CDB7DEB726960FB6F894DEBF30
:101D50000FBECDBFDF91CF9108951F93CF93DF9337
:101D6000C091970116E080919801C81799F0D0E0D2
:101D70001C9FF0011D9FF00D1124E756FE4F40817E
:101D8000518162817381848195810E949D0E21968B
:101D9000C770E9CFDF91CF911F9108954091C9019C
:101DA0005091CA016091CB017091CC018091CD011D
:101DB0009091CE010C949D0E0F931F93CF93DF93C0
:101DC0008091CE0182958F7009F05DC08091CB012A
:101DD000882309F458C0809197011091980160916F
:101DE000C9017091CA01C091CC01D091CD0191E09F
:101DF0006F3F09F090E0292F06E0811709F443C0F6
:101E0000209721F07F3F21F030E003C031E001C096
:101E1000322F90E030FD34C0089FF001099FF00D93
:101E20001124DF01A756BE4F11963C91119737132D
:101E300027C03C91361324C012963C911297311161
:101E40001FC013964D915C9114974C1B5D0B483C41
:101E50005105B0F48091CE018F7080618093CE01E6
:101E6000E256FE4F80818F708061808389EC91E023
:101E70000E94170EDF91CF911F910F910C94AD0E20
:101E800001968770BACFDF91CF911F910F9108957E
:101E90009F92AF92BF92CF92DF92EF92FF920F93F9
:101EA0001F93CF93DF93CDB7DEB761970FB6F8944A
:101EB000DEBF0FBECDBF8C0185E0F801DE011D96AF
:101EC00001900D928A95E1F7F80140815181E280FD
:101ED0009091C9016091CA012091CC013091CD014E
:101EE0002115310531F06F3F31F481E09F3F19F446
:101EF00003C081E001C080E0F82FF1709F2E80FDCB
:101F000046C1F801A380B48089ECC82E81E0D82EA8
:101F1000F090CB01F501E21BF30BFF2009F4DFC0C9
:101F20008091CE01E83CF10508F09BC0282F207F6E
:101F300009F052C0561313C0491311C0FE2CE11012
:101F40000EC08F7080618093CE010E94CE0EC601BC
:101F50000E94170E8091CE01F801858358C1AB28ED
:101F600031F05F3F31F481E04F3F19F403C081E06D
:101F700001C080E080FD03C081E08E2502C080E0CA
:101F800090E0F82FF170FF2E80FF1CC08091970128
:101F90002091980136E0821709F417C190E0389F2C
:101FA000F001399FF00D1124E756FE4F6181561361
:101FB00006C06081461303C06281E61203C0019629
:101FC0008770E9CFFE2CEE2009F421C18091CE016B
:101FD00081608093CE015AC0561306C0491304C0D5
:101FE000E11002C0F8019FC04D875E878D859E85F8
:101FF0000E94890E882379F1EE2069F12091CE01AB
:10200000822F82958F7090E0029774F08091C901C1
:102010009091CA0198878F831986BB86AA862C87E0
:10202000CE0107960E94170E86E0F801A9ECB1E0F8
:1020300001900D928A95E1F70E94DC0E0E94CE0E6F
:102040000DC0561729F14D875E878D859E850E94AC
:10205000890E81112CC0C8010E94170EFF24F39431
:10206000D6C0282F207F69F77A2DB98AA88A6E2DCD
:1020700089890E948E0E89EC91E00E94170E86E0FD
:10208000F60111928A95E9F70E94CE0EF12CBFC09D
:102090004913D9CFE110D7CFF8018583C8010E9439
:1020A000170E86E0F60111928A95E9F7B0C0EE208E
:1020B00091F22091CE01822F82958F7090E002974D
:1020C0000CF4B2CF8091C9019091CA019A8389839F
:1020D0001B82BD82AC822E83CE010196A3CFE83C49
:1020E000F10508F047C0FE2CEE2009F4B4CF5613DA
:1020F00030C049132EC02091CE0120FD21C0822F77
:1021000082958F70482F50E041155105C9F0F801B4
:1021100025834F30510541F08F5F982F9295907F26
:10212000822F8F70892B8583C8010E94170E86E04D
:10213000F801A9ECB1E001900D928A95E1F742C057
:1021400086E0F801A9ECB1E001900D928A95E1F7E3
:102150005EC04D875E878D859E850E94890E8111A8
:1021600063CF8091CE0181608093CE01C8010E942F
:10217000170E4DC07A2DB98AA88A6E2D89890E94C2
:102180008E0E86E0F60111928A95E9F71BC0EE20CB
:1021900009F461CF4D875E878D859E850E94890EEB
:1021A000F82E882309F457CF86E0F801A9ECB1E0B6
:1021B00001900D928A95E1F789EC91E00E94AF0AB7
:1021C0000E94DC0E0E94CE0E22C04D875E878D8558
:1021D0009E850E947313292F22952F70223028F498
:1021E0009F7039F0811105C00BC0243028F49F7016
:1021F00049F4805E883020F0C8010E94170E9F2CA1
:10220000F92C05C0F8019581907F99F7F9CF8F2DB2
:1022100061960FB6F894DEBF0FBECDBFDF91CF91B0
:102220001F910F91FF90EF90DF90CF90BF90AF90F4
:102230009F9008951F93CF93DF93CDB7DEB72C9770
:102240000FB6F894DEBF0FBECDBF4F8358876987A6
:102250007A878B879C87CE0107960E94480F882338
:10226000D1F09F8188852A853B85232B31F08F3FD4
:1022700031F481E09F3F19F403C081E001C080E0A8
:1022800080FD47C04F81588569857A858B859C85FF
:102290000E949D0E3EC086E0FE013796DE0111963B
:1022A00001900D928A95E1F7FF81E8856A857B852B
:1022B0006115710531F0EF3F31F481E0FF3F19F412
:1022C00003C081E001C080E080FD23C0209198011F
:1022D00030E0C9010196877099274091970150E03D
:1022E00084179507F1F1F983EA837D836C8396E087
:1022F000929FD001939FB00D1124A756BE4FFE01AF
:10230000319601900D929A95E1F7809398010E9481
:10231000AD0E16E08091970190919801891771F1A7
:10232000189FC001112487569E4F0E94480F882392
:1023300029F1E09197011E9FF0011124E756FE4F0D
:102340004081518162817381848195810E949D0EBB
:102350008091970190E0019687709927809397016B
:10236000D9CF0E94610E1092980110929701E9EC6A
:10237000F1E086E0DF011D928A95E9F72C960FB611
:10238000F894DEBF0FBECDBFDF91CF911F910895AE
:10239000089508950C94C9110C94CA110E94CC118F
:1023A0006093EC017093ED018093EE019093EF0147
:1023B0000C94470E0C94CE110F931F930091EC01D7
:1023C0001091ED012091EE013091EF01602B712B06
:1023D000822B932B1F910F910C94CE110F931F936F
:1023E0000091EC011091ED012091EE013091EF018F
:1023F00060237123822393231F910F910C94CE119C
:102400000F931F930091EC011091ED012091EE01CB
:102410003091EF0160277127822793271F910F9139
:102420000C94CE110C94C9110E9412126093E80111
:102430007093E9018093EA019093EB010C94470EAD
:1024400060E070E0CB010C9414120F931F9341E0F5
:1024500050E060E070E08A019B0104C0000F111F92
:10246000221F331F8A95D2F7C901B8011F910F911E
:102470000C9414120F931F9341E050E060E070E061
:1024800004C0440F551F661F771F8A95D2F78091AD
:10249000E8019091E901A091EA01B091EB018A0174
:1024A0009B01082B192B2A2B3B2BC901B8011F912B
:1024B0000F910C9414120F931F9341E050E060E0D1
:1024C00070E004C0440F551F661F771F8A95D2F72E
:1024D00040955095609570958091E8019091E90143
:1024E000A091EA01B091EB018A019B010823192315
:1024F0002A233B23C901B8011F910F910C94141298
:102500000F931F9341E050E060E070E004C0440F7F
:10251000551F661F771F8A95D2F78091E801909129
:10252000E901A091EA01B091EB018A019B01082722
:1025300019272A273B27C901B8011F910F910C9435
:1025400014120F931F930091E8011091E90120915B
:10255000EA013091EB01602B712B822B932B1F91A1
:102560000F910C9414120F931F930091E801109196
:10257000E9012091EA013091EB016023712382236C
:1025800093231F910F910C9414120F931F9300919A
:10259000E8011091E9012091EA013091EB016027F7
:1025A0007127822793271F910F910C94141208957D
:1025B000292F220F920F990F890FE82FE695E695A4
:1025C000E695877051E001C0550F8A95EAF785E0DE
:1025D000E89FF0011124E153FE4F20E030E070E06D
:1025E0004081CB01022E02C0969587950A94E2F7AE
:1025F0008170819584278523842781932F5F3F4FA6
:102600002530310569F70895292F220F920F990F70
:10261000890F682F669566956695982F977085E067
:10262000689FB001112440E050E080E0FB01E40F1E
:10263000F51FE153FE4F208130E0092E02C0369590
:1026400027950A94E2F721703327042E01C0220F48
:102650000A94EAF7822B4F5F5F4F4530510531F7FF
:102660000895BF92CF92DF92EF92FF920F931F9344
:10267000CF93DF938C01C090E801D090E901E09006
:10268000EA01F090EB018091EC019091ED01A091B5
:10269000EE01B091EF01C82AD92AEA2AFB2ACFE13C
:1026A000D0E0D701C6010C2E04C0B695A79597952A
:1026B00087950A94D2F780FD04C0219790F7B12C3A
:1026C00007C0BC2EB8018C2F0E9460040197A9F3AB
:1026D0008B2DDF91CF911F910F91FF90EF90DF90A5
:1026E000CF90BF900895CF93DF93EC010E943113F8
:1026F000BE010E946004DF91CF9108951F93CF9394
:10270000DF93EB0190919601992321F0CB010E9478
:10271000731313C0882349F0CB010E943113182F83
:10272000682FCE010E94D81204C0CB010E9404136E
:10273000182FBE01812F0E946004DF91CF911F915D
:1027400008958091F00185958595859508958091EE
:10275000F001877008959091F001977081E009F47D
:1027600080E008958091FC0108959091FC01892BEF
:102770008093FC01089580959091FC0189238093BA
:10278000FC0108951092FC0108959091FB01892BA2
:102790008093FB01089580959091FB01892380939C
:1027A000FB0108951092FB0108951092FA0108951B
:1027B0008091F101089508950C94DB130C94DC13BF
:1027C0009091F101981721F08093F1010C94DE13A0
:1027D00008958091F101882329F01092F10180E0A1
:1027E0000C94DE130895E0910001F09101018091B5
:1027F000FC018083E0910001F091010190818091C2
:10280000FB01892B8083E0910001F091010190810F
:102810008091FA01892B80838091F101882381F0D6
:10282000E0910001F09101019081892B80838091DA
:102830000001909101010E940A1581110E94E91383
:1028400080910001909101010C947A090C94DB13A2
:1028500098E0899F90011124262B2093F0010E947B
:102860003A128091F0018595859585950C942614F2
:102870001092F00180E00C9426142091F0018095D4
:1028800082238093F001982F977079F430E0482FDD
:10289000082E000C550B2417350739F085958595C2
:1028A00085950E945B120C94381408956FEF7FEFAA
:1028B00080E090E00C943C2080E090E00E941820A2
:1028C00021E08C3E9E4F09F020E0822F089582E0A7
:1028D00090E00C94102083E090E00C941020CF93B3
:1028E00084E090E00E941020C82F81E290E00E94D6
:1028F00010202C2F30E0A901582BCA01CF91089548
:10290000CF93C92F682F84E090E00E941E206C2F87
:1029100081E290E0CF910C941E20AB01BC018FE0CE
:1029200090E00C943020AB01BC0183E190E00C946A
:10293000302060E070E0CB010C94931460E070E014
:10294000CB010E948D140C9499146CEE7EEF80E004
:1029500090E00E943C2060E082E090E00E941E2017
:1029600060E083E090E00E941E201092EC01109243
:10297000ED011092EE011092EF0160E084E090E032
:102980000E941E2060E081E290E00E941E2060E034
:1029900085E090E00E941E2060E086E090E00E94CA
:1029A0001E206FEF87E090E00E941E2040E050E084
:1029B000BA0188E090E00E94302060E08DE090E075
:1029C0000E941E2040E050E0BA0188E190E00E94A1
:1029D000302060E087E190E00E941E2040E050E05F
:1029E000BA018CE190E00E94302060E080E290E04B
:1029F0000E941E2040E050E0BA0188E190E00E9471
:102A000030200C949E140C94A514682F8EE090E056
:102A10000C941E20FC01329697E080E0915029F042
:102A200021912223D9F38F5FF9CF0895662349F0CE
:102A3000FC01329608962191621729F0E817F907F0
:102A4000D1F780E0089581E008959C01FC01329661
:102A50009FEF80E04191461789F09F3F19F44111A3
:102A600001C0982F8F5F8630A9F79F3F39F0F90199
:102A7000E90FF11D97FDFA956283089508959C0171
:102A80002A5F3F4FFC014281461301C0128201962A
:102A900082179307B9F708950C9425150C943F15E8
:102AA000029626E0FC0111922A95E9F7089508950F
:102AB0000C9457150C945715CF930E945A150E94E9
:102AC0008A060E945815C0E08C2F0E943906811199
:102AD00004C0CF5FC630C1F701C081E0CF91089537
:102AE0000C9457150C9470150E94721580912D024C
:102AF000843049F11092FE0120E488E190E00FB6A5
:102B0000F894A895809360000FBE2093600080E049
:102B10000E9444040E94721583B7817F846083BF42
:102B200083B7816083BF7894889583B78E7F83BF96
:102B30000FB6F894A895809160008861809360003A
:102B4000109260000FBE08950C9457150E94610EFC
:102B50000E946E090E9444040C94A4151F920F92C7
:102B60000FB60F9211248F939F93AF93BF938091D1
:102B7000FE01811113C08091230290912402A09143
:102B80002502B09126024196A11DB11D809323021A
:102B900090932402A0932502B0932602BF91AF9197
:102BA0009F918F910F900FBE0F901F90189582E00C
:102BB00084BD93E095BD9AEF97BD80936E00089514
:102BC0002FB7F8948091230290912402A0912502BE
:102BD000B09126022FBF08959C014FB7F8948091C1
:102BE000230290912402A0912502B09126024FBFAA
:102BF000821B930B089578941F920F920FB60F9239
:102C000011248F939F93AF93BF9380912302909150
:102C10002402A0912502B09126020196A11DB11DAA
:102C20008093230290932402A0932502B09326025E
:102C3000BF91AF919F918F910F900FBE0F901F90FA
:102C4000189581E08093E00080E28093D800109294
:102C5000C9008FE19EE40197F1F700C0000087E012
:102C600090EBDC018093360290933702A0933802F8
:102C7000B09339029CE088E10FB6F894A895809350
:102C800060000FBE90936000FFCF0C9456140E941A
:102C90008A068FE39CE90197F1F700C000000E94CB
:102CA0008A0680E00E94390680FF04C00E94451613
:102CB0000C94211608950E945C14811102C00E9498
:102CC00003150E9467148093FD010E946F14909376
:102CD0002802809327020E946B14682F70E080E026
:102CE00090E00E94DA116091E8017091E901809111
:102CF000EA019091EB010C9412128091060280FF80
:102D00000BC06091070185E0689FB00111247595A3
:102D10006795759567952BC081FF09C06091070184
:102D200085E0689FB00111247595679520C082FFEA
:102D300007C06091070185E0689FB001112417C0AA
:102D4000909105029923D1F060910601961788F7BA
:102D50002091070185E0289F90011124929FA001F6
:102D6000939F500D112470E0CA010E94E21F603849
:102D7000710540F46115710519F406C065E070E055
:102D8000862F08958FE7089581E0089580910602C7
:102D900080FF08C06091030170E075956795759597
:102DA000679521C081FF06C06091030170E07595B1
:102DB000679519C082FF04C06091030170E010C0E4
:102DC00090910402992399F0609102019617A0F75F
:102DD00080910301899FC001112470E00E94E21FCD
:102DE0006038710540F46115710519F406C061E0A1
:102DF00070E0862F08958FE7089581E00895803F61
:102E000021F40E947D16819504C0813F29F40E941F
:102E10007D1680930A020895823F21F40E947D1658
:102E2000819504C0833F29F40E947D168093090296
:102E30000895893F19F40E94C61605C08A3F31F4EF
:102E40000E94C616819580930B0208958B3F21F452
:102E50000E94C616819504C08C3F29F40E94C616B4
:102E600080930C020895843F21F4809108028160D0
:102E700017C0853F21F480910802826011C0863F0F
:102E800021F48091080284600BC0873F21F4809177
:102E90000802886005C0883F31F480910802806193
:102EA0008093080208958D3F21F48091060281608D
:102EB0000BC08E3F21F480910602826005C08F3FD7
:102EC00029F4809106028460809306020895803F71
:102ED00039F480910A0287FF6AC010920A0267C023
:102EE000813F29F480910A021816BCF360C09091CA
:102EF0000902823F29F497FF5AC01092090257C075
:102F0000833F19F41916CCF352C090910B02893FFC
:102F100031F419160CF04BC010920B0248C08A3FD6
:102F200019F497FF44C0F8CF8B3F39F480910C021D
:102F300087FF3DC010920C023AC08C3F29F480916B
:102F40000C021816BCF333C0843F21F480910802B0
:102F50008E7F17C0853F21F4809108028D7F11C0BC
:102F6000863F21F4809108028B7F0BC0873F21F4BC
:102F700080910802877F05C0883F31F48091080264
:102F80008F7E8093080213C08D3F21F4809106024A
:102F90008E7F0BC08E3F21F4809106028D7F05C08D
:102FA0008F3F29F4809106028B7F809306028091E7
:102FB0000902811106C080910A02811102C010929B
:102FC000050280910B02811106C080910C028111D3
:102FD00002C01092040208950E94E0152091090297
:102FE000211104C020910A02222321F090930302B0
:102FF0008093020220910B02211104C020910C0247
:10300000222321F0909301028093000287E092E056
:103010000C948509EF92FF920F931F93CF93DF9348
:1030200000D000D000D0CDB7DEB786E0E7E0F2E018
:10303000DE01119601900D928A95E1F7E090090268
:10304000F0900A0200910B0210910C0210920902FA
:1030500010920A0210920B0210920C02E11003C0AF
:10306000FF2009F45DC080910202909103020E944A
:10307000EC15AC0190910502992339F020910801DB
:1030800030E02417350758F04BC02091FF018AE04B
:10309000289F900111242417350718F041C09F3F45
:1030A00019F09F5F90930502EE2061F00E947D165B
:1030B0001E1414F09FEF01C091E0989F902D1124F1
:1030C00090930902FF2061F00E947D161F1414F0F6
:1030D0009FEF01C091E0989F902D112490930A02D8
:1030E000309109023323E1F020910A022223C1F03A
:1030F00045EB3403C0011124992319F09093090280
:1031000003C081E08093090235EB2303C001112441
:10311000992319F090930A0203C081E080930A0278
:10312000011103C0112309F45DC080910002909148
:1031300001020E94EC15AC0190910402992339F030
:103140002091040130E02417350758F04BC020913E
:1031500005018AE0289F900111242417350718F0F3
:1031600041C09F3F19F09F5F90930402002361F0DC
:103170000E94C616101614F09FEF01C091E0989FB0
:10318000902D112490930B02112361F00E94C6161A
:10319000111614F09FEF01C091E0989F902D11241B
:1031A00090930C0230910B023323E1F020910C023A
:1031B0002223C1F045EB3403C0011124992319F0F7
:1031C00090930B0203C081E080930B0235EB230345
:1031D000C0011124992319F090930C0203C081E0DF
:1031E00080930C028091090281110BC080910A0228
:1031F000811107C080910B02811103C080910C02E4
:1032000081110E94EC17EB82FC820D831E8386E005
:10321000FE013196A7E0B2E001900D928A95E1F7A8
:1032200026960FB6F894DEBF0FBECDBFDF91CF91CB
:103230001F910F91FF90EF900895E7E0F2E086E094
:10324000DF011D928A95E9F710920502109204029F
:10325000109206020895809115020895CF93DF938E
:1032600000D01F92CDB7DEB790912D02943019F5A2
:1032700089837B836A8382E08093E9008FEF90915A
:10328000E800815095FD06C095ED9A95F1F7000094
:103290008111F5CF8091E80085FF0DC040E050E03E
:1032A00063E070E0CE0101960E94441B8091E8002B
:1032B0008E778093E8000F900F900F90DF91CF9161
:1032C0000895BC0184E00C942E19BC0183E00C9499
:1032D0002E1922E02093E9002FEF3091E8002150D1
:1032E00035FD06C035ED3A95F1F700002111F5CF17
:1032F0002091E80025FF0BC040E050E066E070E060
:103300000E94441B8091E8008E778093E800089526
:10331000CF93DF9321E02093E9002FEF3091E80075
:10332000215035FD06C035ED3A95F1F70000211129
:10333000F5CF2091E80025FF14C0EC0140E050E0FB
:1033400068E070E00E94441B8091E8008E778093D3
:10335000E80088E0FE01ADE0B2E001900D928A95B0
:10336000E1F7DF91CF91089580912C02811109C07E
:103370000E94D51C0E94321D8091E20084608093DF
:10338000E200089510922C020895089508950C9477
:10339000A61542E061EC81E00E944E1C42E261EC25
:1033A00082E00C944E1C80912F02833009F460C09F
:1033B00030F4813071F0823009F499C008958A3078
:1033C00009F485C08B3009F46BC0893009F0A7C0BF
:1033D00020C080912E02813A09F0A1C08091E800BE
:1033E000877F8093E8008091320290913302892B8D
:1033F00021F468E08DE092E003C060E080E090E0BE
:1034000070E00E948F1B8091E8008B778093E8002A
:10341000089580912E02813209F081C0809132029C
:1034200090913302029708F07AC08091E800877F7C
:103430008093E8008091E80082FD05C080912D0214
:103440008111F8CF6CC02091F3008091F20090E0E0
:10345000922B029729F48091F1008B7F813021F427
:103460008091F100809315028091E8008B7753C022
:1034700080912E02813A09F052C0809132029091DF
:103480003302892B09F04BC08091E800877F80933D
:10349000E8008091E80080FFFCCF8091130136C0E6
:1034A00080912E028132D9F58091320290913302BF
:1034B000892BA9F58091E800877F8093E8000E941E
:1034C000831C80913002809313010C94610E8091D3
:1034D0002E02813221F58091E800877F8093E800F9
:1034E0000E94831C8091310280931602089580917E
:1034F0002E02813AA1F48091E800877F8093E80052
:103500008091E80080FFFCCF809116028093F1004B
:103510008091E8008E778093E8000C94831C0895D6
:1035200084B7877F84BF0FB6F894A8958091600018
:10353000886180936000109260000FBE90E080E888
:103540000FB6F89480936100909361000FBE0E94C3
:10355000D7090E94D51C0E94321D8091E200846030
:103560008093E20078940E94C71F0E94DD0989E0E1
:1035700091E00E94690980912D02853069F40E94D2
:10358000741580912B028823B1F30E945C15882367
:1035900091F30E942E1BEFCF0E94E5090E94CB09F8
:1035A0000E94CA09E8CF0C94D51A292F332723305B
:1035B0003105C9F060F42130310581F02230310548
:1035C00009F044C08BE390E021EE33E043C02132A8
:1035D0003105E1F02232310549F138C082E190E055
:1035E0002CE134E037C099278130910549F028F06B
:1035F000029761F5E9EBF3E005C0EDEDF3E002C001
:10360000EDECF3E0849190E09F0124C06115710519
:1036100041F061307105D1F489E090E02CE034E0B4
:1036200019C089E090E023EF33E014C06115710503
:1036300041F06130710551F481E890E02EE234E010
:1036400009C080E490E02FEA34E004C080E090E01C
:1036500020E030E0FA0131832083089580E189BDC4
:1036600082E189BD09B400FEFDCF8091D8008F7D35
:103670008093D8008091E00082608093E000809188
:10368000E00081FDFCCF0895CF92DF92EF92FF9290
:103690000F931F93CF93DF93EC018B017A010E946C
:1036A000A21C811133C0E114F10439F0F7018081CB
:1036B0009181081B190BC80FD91FC12CD12C0115E2
:1036C000110519F18091E80085FD16C08091E80090
:1036D0008E778093E800E114F10449F0F7018081CE
:1036E0009181C80ED91ED182C08285E00FC00E9490
:1036F000A21C882321F30AC089918093F100015014
:103700001109FFEFCF1ADF0ADACF80E0DF91CF9106
:103710001F910F91FF90EF90DF90CF90089520912F
:103720003402309135022617370748F061157105CC
:1037300039F42091E8002E772093E80001C0B90108
:10374000FC0120E06115710579F180912D0288233B
:10375000F1F18530F1F18091E80083FD3CC080916A
:10376000E80082FD2EC08091E80080FFEBCF209121
:10377000F3008091F20090E0922B6115710551F0F9
:103780008830910538F421912093F100615071093E
:103790000196F3CF21E0089709F020E08091E8003E
:1037A0008E778093E800CECF2111CFCF0AC08091D1
:1037B0002D02882361F0853061F08091E80083FD5F
:1037C0000AC08091E80082FFF2CF80E0089582E095
:1037D000089583E0089581E00895209134023091A6
:1037E00035022617370748F06115710539F4209125
:1037F000E8002E772093E80001C0B901FC0120E029
:103800006115710591F180912D02882309F440C062
:10381000853009F43FC08091E80083FD3DC0809170
:10382000E80082FD2FC08091E80080FFE9CF209161
:10383000F3008091F20090E0922B6115710559F030
:103840008830910540F424912093F1003196615025
:1038500071090196F2CF21E0089709F020E08091EC
:10386000E8008E778093E800CBCF2111CCCF0AC03F
:1038700080912D02882361F0853061F08091E8000D
:1038800083FD0AC08091E80082FFF2CF80E00895B6
:1038900082E0089583E0089581E00895982F97309D
:1038A00068F59093E900981739F07091EC00209139
:1038B000ED005091F00003C0242F762F50E021FD41
:1038C00002C09F5FECCF3091EB003E7F3093EB0066
:1038D0003091ED003D7F3093ED003091EB00316091
:1038E0003093EB007093EC002093ED005093F000C8
:1038F0002091EE0027FDE5CF80E008958F70809342
:10390000E90081E0089580912E0287FF11C0809127
:10391000E80082FD05C080912D028111F8CF11C011
:103920008091E8008B770BC080912D02882349F0AD
:103930008091E80080FFF8CF8091E8008E77809337
:10394000E80008952091E4003091E50095E640916B
:10395000EC00842F817040FF23C08091E80080FD3F
:103960001DC080912D02882399F0853099F08091B7
:10397000EB0085FD11C04091E4005091E500241753
:10398000350729F3915011F09A01E1CF84E00895B1
:1039900082E0089583E0089581E0089580E008952D
:1039A0004091E80042FFDDCF08950E94431D0E9430
:1039B0004B1DE0EEF0E0808181608083E8EDF0E077
:1039C00080818F77808319BCA7EDB0E08C918E7FCA
:1039D0008C9380818F7E808310922C0208950F93A8
:1039E0001F93CF93DF930E94431D0E944B1DC8ED90
:1039F000D0E088818F7788838881806888838881F8
:103A00008F7D888319BC10922D021092290210928A
:103A10002B0210922A0200EE10E0F80180818B7FC9
:103A2000808388818160888342E060E080E00E943A
:103A30004E1CE1EEF0E080818E7F8083E2EEF0E0CC
:103A4000808181608083808188608083F8018081AB
:103A50008E7F8083888180618883DF91CF911F91E1
:103A60000F910895E8EDF0E080818F7E8083E7ED8F
:103A7000F0E080818160808384E082BF81E0809378
:103A80002C020C94EF1CE8EDF0E080818E7F8083A7
:103A90001092E20008951092DA001092E100089569
:103AA0001F920F920FB60F9211242F933F934F93B3
:103AB0005F936F937F938F939F93AF93BF93EF9396
:103AC000FF938091E10082FF0BC08091E20082FFB2
:103AD00007C08091E1008B7F8093E1000E94C61FA8
:103AE0008091DA0080FF1FC08091D80080FF1BC04A
:103AF0008091DA008E7F8093DA008091D90080FF78
:103B00000DC080E189BD82E189BD09B400FEFDCF11
:103B100081E080932D020E94B41905C019BC109257
:103B20002D020E94C2198091E10080FF19C080918E
:103B3000E20080FF15C08091E2008E7F8093E2005A
:103B40008091E20080618093E2008091D8008062E1
:103B50008093D80019BC85E080932D020E94C6197D
:103B60008091E10084FF30C08091E20084FF2CC08E
:103B700080E189BD82E189BD09B400FEFDCF80915D
:103B8000D8008F7D8093D8008091E1008F7E809354
:103B9000E1008091E2008F7E8093E2008091E2005C
:103BA00081608093E20080912902882311F084E0F3
:103BB00007C08091E30087FD02C081E001C083E07F
:103BC00080932D020E94C7198091E10083FF29C0D4
:103BD0008091E20083FF25C08091E100877F809380
:103BE000E10082E080932D02109229028091E10091
:103BF0008E7F8093E1008091E2008E7F8093E200CF
:103C00008091E20080618093E20042E060E080E029
:103C10000E944E1C8091F00088608093F0000E940A
:103C2000C519FF91EF91BF91AF919F918F917F91B6
:103C30006F915F914F913F912F910F900FBE0F9019
:103C40001F9018951F920F920FB60F9211242F9369
:103C50003F934F935F936F937F938F939F93AF9314
:103C6000BF93CF93DF93EF93FF93C091E900CF70A1
:103C70008091EC00D82FD17080FDD0E81092E9003F
:103C80008091F000877F8093F00078940E94661EF8
:103C90001092E9008091F00088608093F000CD2BB5
:103CA000CF70C093E900FF91EF91DF91CF91BF9169
:103CB000AF919F918F917F916F915F914F913F91C4
:103CC0002F910F900FBE0F901F9018951F93CF93B9
:103CD000DF93CDB7DEB7AA970FB6F894DEBF0FBE5D
:103CE000CDBFEEE2F2E08091F100819322E0E63375
:103CF000F207C9F70E94D3198091E80083FF2EC113
:103D000080912E0290912F02492F50E04A305105A8
:103D100008F024C1FA01E059FF4F0C94F61F8038D7
:103D200021F0823809F01AC108C080912A029091CE
:103D30002B02992389F082600FC0809132028F702C
:103D4000873008F00BC18093E9008091EB0085FB80
:103D5000882780F91092E9009091E800977F90936E
:103D6000E8008093F1001092F100D1C0282F2D7F40
:103D700009F0F4C0882319F0823061F0EFC080911F
:103D80003002813009F0EAC0933009F080E080937E
:103D90002B022EC08091300281112AC08091320204
:103DA0008F702FEF280F263008F0D8C08093E900DD
:103DB0002091EB0020FF1CC0933021F48091EB0098
:103DC000806214C09091EB0090619093EB0021E031
:103DD00030E0A90102C0440F551F8A95E2F74093D5
:103DE000EA001092EA008091EB0088608093EB007B
:103DF0001092E9008091E800877F8093E8000E949C
:103E0000831CACC08111AAC0109130021F77809131
:103E1000E3008078812B8093E3008091E800877F26
:103E20008093E8000E94831C8091E80080FFFCCF13
:103E30008091E30080688093E300111102C082E06A
:103E400001C083E080932D0289C08058823008F041
:103E500085C080913002909131028C3D53E09507EE
:103E600079F583E08A838AE289834FB7F894DE018B
:103E7000139620E03EE051E2E32FF0E0509357002C
:103E8000E49120FF03C0E295EF703F5FEF708E2F4B
:103E900090E0EA3010F0C79601C0C0968D939D93D4
:103EA0002F5F243149F74FBF8091E800877F8093CF
:103EB000E8006AE270E0CE0101960E948F1B16C0F6
:103EC0006091320270913302AE014F5F5F4F0E94EA
:103ED000D31ABC01892B09F441C09091E800977F67
:103EE0009093E80089819A810E94ED1B8091E800FF
:103EF0008B778093E80032C0803881F58091E800AC
:103F0000877F8093E800809129028093F10080915F
:103F1000E8008E7772CF811121C08091300290919C
:103F2000310299270297D4F48091E800877F80932B
:103F3000E80080913002809329020E94831C8091C6
:103F40002902811106C08091E30087FD02C081E053
:103F500001C084E080932D020E94C9198091E8007D
:103F600083FF0AC08091E800877F8093E8008091FA
:103F7000EB0080628093EB00AA960FB6F894DEBF48
:103F80000FBECDBFDF91CF911F9108950895CF93BC
:103F900080912D028823A1F0C091E900CF7090910B
:103FA000EC00892F817090FD80E8C82B1092E90009
:103FB0008091E80083FD0E94661ECF70C093E900E7
:103FC000CF91089597FB072E16F4009407D077FD44
:103FD00009D00E94FC1F07FC05D03EF49095819506
:103FE0009F4F0895709561957F4F0895EE0FFF1FC5
:103FF0000590F491E02D0994AA1BBB1B51E107C069
:10400000AA1FBB1FA617B70710F0A61BB70B881F68
:10401000991F5A95A9F780959095BC01CD010895F7
:10402000F999FECF92BD81BDF89A992780B5089580
:10403000A8E1B0E042E050E00C944420262FF9992A
:10404000FECF92BD81BDF89A019700B4021639F0F7
:104050001FBA20BD0FB6F894FA9AF99A0FBE0895C8
:104060000396272F0E941F200E941E20252F0E94AA
:104070001F20242F0C941F200196272F0E941F2001
:104080000C941E20DC01CB01FC01F999FECF06C087
:10409000F2BDE1BDF89A319600B40D924150504006
:0840A000B8F70895F894FFCF72
:1040A800F2010101320218020C2B198819691965ED
:1040B80019611901E200E900EA00B500B600B7008D
:1040C800CD008301CC008A019201940121022302D0
:1040D80024022502260227022A02B300B4006F0038
:1040E8007000818283F590326697C6913534F43139
:1040F80036E200E900EA00B500B600B700CD00835B
:1041080001CC008A01920194012102230224022594
:1041180002260227022A02B300B4006F0070008151
:02412800828390
:00000001FF
